{
  "address": "0xd9902959cd74b14425adB69f5f51b239487f024C",
  "abi": [
    {
      "inputs": [],
      "stateMutability": "nonpayable",
      "type": "constructor"
    },
    {
      "anonymous": false,
      "inputs": [
        {
          "indexed": true,
          "internalType": "address",
          "name": "owner",
          "type": "address"
        },
        {
          "indexed": true,
          "internalType": "address",
          "name": "approved",
          "type": "address"
        },
        {
          "indexed": true,
          "internalType": "uint256",
          "name": "tokenId",
          "type": "uint256"
        }
      ],
      "name": "Approval",
      "type": "event"
    },
    {
      "anonymous": false,
      "inputs": [
        {
          "indexed": true,
          "internalType": "address",
          "name": "owner",
          "type": "address"
        },
        {
          "indexed": true,
          "internalType": "address",
          "name": "operator",
          "type": "address"
        },
        {
          "indexed": false,
          "internalType": "bool",
          "name": "approved",
          "type": "bool"
        }
      ],
      "name": "ApprovalForAll",
      "type": "event"
    },
    {
      "anonymous": false,
      "inputs": [
        {
          "indexed": true,
          "internalType": "uint256",
          "name": "id",
          "type": "uint256"
        },
        {
          "indexed": false,
          "internalType": "string",
          "name": "name",
          "type": "string"
        },
        {
          "indexed": false,
          "internalType": "string",
          "name": "genre",
          "type": "string"
        },
        {
          "indexed": false,
          "internalType": "string",
          "name": "identify",
          "type": "string"
        },
        {
          "indexed": false,
          "internalType": "string",
          "name": "network",
          "type": "string"
        },
        {
          "indexed": false,
          "internalType": "string",
          "name": "story",
          "type": "string"
        },
        {
          "indexed": false,
          "internalType": "address",
          "name": "creator",
          "type": "address"
        },
        {
          "indexed": false,
          "internalType": "uint256",
          "name": "amt",
          "type": "uint256"
        },
        {
          "indexed": false,
          "internalType": "bool",
          "name": "status",
          "type": "bool"
        }
      ],
      "name": "POVBought",
      "type": "event"
    },
    {
      "anonymous": false,
      "inputs": [
        {
          "indexed": true,
          "internalType": "uint256",
          "name": "id",
          "type": "uint256"
        },
        {
          "indexed": false,
          "internalType": "string",
          "name": "name",
          "type": "string"
        },
        {
          "indexed": false,
          "internalType": "string",
          "name": "genre",
          "type": "string"
        },
        {
          "indexed": false,
          "internalType": "string",
          "name": "identify",
          "type": "string"
        },
        {
          "indexed": false,
          "internalType": "string",
          "name": "network",
          "type": "string"
        },
        {
          "indexed": false,
          "internalType": "string",
          "name": "story",
          "type": "string"
        },
        {
          "indexed": false,
          "internalType": "address",
          "name": "creator",
          "type": "address"
        },
        {
          "indexed": false,
          "internalType": "uint256",
          "name": "amt",
          "type": "uint256"
        },
        {
          "indexed": false,
          "internalType": "bool",
          "name": "status",
          "type": "bool"
        }
      ],
      "name": "POVCreated",
      "type": "event"
    },
    {
      "anonymous": false,
      "inputs": [
        {
          "indexed": true,
          "internalType": "address",
          "name": "from",
          "type": "address"
        },
        {
          "indexed": true,
          "internalType": "address",
          "name": "to",
          "type": "address"
        },
        {
          "indexed": true,
          "internalType": "uint256",
          "name": "tokenId",
          "type": "uint256"
        }
      ],
      "name": "Transfer",
      "type": "event"
    },
    {
      "anonymous": false,
      "inputs": [
        {
          "indexed": false,
          "internalType": "uint256",
          "name": "amt",
          "type": "uint256"
        },
        {
          "indexed": false,
          "internalType": "address",
          "name": "creator",
          "type": "address"
        }
      ],
      "name": "VoteReputation",
      "type": "event"
    },
    {
      "inputs": [
        {
          "internalType": "address",
          "name": "to",
          "type": "address"
        },
        {
          "internalType": "uint256",
          "name": "tokenId",
          "type": "uint256"
        }
      ],
      "name": "approve",
      "outputs": [],
      "stateMutability": "nonpayable",
      "type": "function"
    },
    {
      "inputs": [
        {
          "internalType": "address",
          "name": "owner",
          "type": "address"
        }
      ],
      "name": "balanceOf",
      "outputs": [
        {
          "internalType": "uint256",
          "name": "",
          "type": "uint256"
        }
      ],
      "stateMutability": "view",
      "type": "function"
    },
    {
      "inputs": [
        {
          "internalType": "uint256",
          "name": "tokenId",
          "type": "uint256"
        }
      ],
      "name": "getApproved",
      "outputs": [
        {
          "internalType": "address",
          "name": "",
          "type": "address"
        }
      ],
      "stateMutability": "view",
      "type": "function"
    },
    {
      "inputs": [
        {
          "internalType": "address",
          "name": "owner",
          "type": "address"
        },
        {
          "internalType": "address",
          "name": "operator",
          "type": "address"
        }
      ],
      "name": "isApprovedForAll",
      "outputs": [
        {
          "internalType": "bool",
          "name": "",
          "type": "bool"
        }
      ],
      "stateMutability": "view",
      "type": "function"
    },
    {
      "inputs": [
        {
          "internalType": "uint256",
          "name": "",
          "type": "uint256"
        }
      ],
      "name": "mapIdToPov",
      "outputs": [
        {
          "internalType": "uint256",
          "name": "id",
          "type": "uint256"
        },
        {
          "internalType": "string",
          "name": "identify",
          "type": "string"
        },
        {
          "internalType": "string",
          "name": "name",
          "type": "string"
        },
        {
          "internalType": "string",
          "name": "genre",
          "type": "string"
        },
        {
          "internalType": "string",
          "name": "network",
          "type": "string"
        },
        {
          "internalType": "string",
          "name": "story",
          "type": "string"
        },
        {
          "internalType": "address",
          "name": "creator",
          "type": "address"
        },
        {
          "internalType": "uint256",
          "name": "amt",
          "type": "uint256"
        },
        {
          "internalType": "bool",
          "name": "status",
          "type": "bool"
        }
      ],
      "stateMutability": "view",
      "type": "function"
    },
    {
      "inputs": [],
      "name": "name",
      "outputs": [
        {
          "internalType": "string",
          "name": "",
          "type": "string"
        }
      ],
      "stateMutability": "view",
      "type": "function"
    },
    {
      "inputs": [
        {
          "internalType": "uint256",
          "name": "tokenId",
          "type": "uint256"
        }
      ],
      "name": "ownerOf",
      "outputs": [
        {
          "internalType": "address",
          "name": "",
          "type": "address"
        }
      ],
      "stateMutability": "view",
      "type": "function"
    },
    {
      "inputs": [
        {
          "internalType": "address",
          "name": "to",
          "type": "address"
        },
        {
          "internalType": "string",
          "name": "identify",
          "type": "string"
        },
        {
          "internalType": "string",
          "name": "uri",
          "type": "string"
        },
        {
          "internalType": "string",
          "name": "name",
          "type": "string"
        },
        {
          "internalType": "string",
          "name": "genre",
          "type": "string"
        },
        {
          "internalType": "string",
          "name": "network",
          "type": "string"
        },
        {
          "internalType": "string",
          "name": "story",
          "type": "string"
        },
        {
          "internalType": "uint256",
          "name": "amt",
          "type": "uint256"
        }
      ],
      "name": "safeMint",
      "outputs": [],
      "stateMutability": "nonpayable",
      "type": "function"
    },
    {
      "inputs": [
        {
          "internalType": "address",
          "name": "from",
          "type": "address"
        },
        {
          "internalType": "address",
          "name": "to",
          "type": "address"
        },
        {
          "internalType": "uint256",
          "name": "tokenId",
          "type": "uint256"
        }
      ],
      "name": "safeTransferFrom",
      "outputs": [],
      "stateMutability": "nonpayable",
      "type": "function"
    },
    {
      "inputs": [
        {
          "internalType": "address",
          "name": "from",
          "type": "address"
        },
        {
          "internalType": "address",
          "name": "to",
          "type": "address"
        },
        {
          "internalType": "uint256",
          "name": "tokenId",
          "type": "uint256"
        },
        {
          "internalType": "bytes",
          "name": "data",
          "type": "bytes"
        }
      ],
      "name": "safeTransferFrom",
      "outputs": [],
      "stateMutability": "nonpayable",
      "type": "function"
    },
    {
      "inputs": [
        {
          "internalType": "address",
          "name": "operator",
          "type": "address"
        },
        {
          "internalType": "bool",
          "name": "approved",
          "type": "bool"
        }
      ],
      "name": "setApprovalForAll",
      "outputs": [],
      "stateMutability": "nonpayable",
      "type": "function"
    },
    {
      "inputs": [
        {
          "internalType": "bytes4",
          "name": "interfaceId",
          "type": "bytes4"
        }
      ],
      "name": "supportsInterface",
      "outputs": [
        {
          "internalType": "bool",
          "name": "",
          "type": "bool"
        }
      ],
      "stateMutability": "view",
      "type": "function"
    },
    {
      "inputs": [],
      "name": "symbol",
      "outputs": [
        {
          "internalType": "string",
          "name": "",
          "type": "string"
        }
      ],
      "stateMutability": "view",
      "type": "function"
    },
    {
      "inputs": [
        {
          "internalType": "address",
          "name": "from",
          "type": "address"
        },
        {
          "internalType": "address",
          "name": "to",
          "type": "address"
        },
        {
          "internalType": "uint256",
          "name": "token_id",
          "type": "uint256"
        },
        {
          "internalType": "string",
          "name": "network",
          "type": "string"
        }
      ],
      "name": "toTransferFrom",
      "outputs": [
        {
          "components": [
            {
              "internalType": "uint256",
              "name": "id",
              "type": "uint256"
            },
            {
              "internalType": "string",
              "name": "identify",
              "type": "string"
            },
            {
              "internalType": "string",
              "name": "name",
              "type": "string"
            },
            {
              "internalType": "string",
              "name": "genre",
              "type": "string"
            },
            {
              "internalType": "string",
              "name": "network",
              "type": "string"
            },
            {
              "internalType": "string",
              "name": "story",
              "type": "string"
            },
            {
              "internalType": "address",
              "name": "creator",
              "type": "address"
            },
            {
              "internalType": "uint256",
              "name": "amt",
              "type": "uint256"
            },
            {
              "internalType": "bool",
              "name": "status",
              "type": "bool"
            }
          ],
          "internalType": "struct TaleTrade.POV",
          "name": "",
          "type": "tuple"
        }
      ],
      "stateMutability": "nonpayable",
      "type": "function"
    },
    {
      "inputs": [
        {
          "internalType": "uint256",
          "name": "tokenId",
          "type": "uint256"
        }
      ],
      "name": "tokenURI",
      "outputs": [
        {
          "internalType": "string",
          "name": "",
          "type": "string"
        }
      ],
      "stateMutability": "view",
      "type": "function"
    },
    {
      "inputs": [
        {
          "internalType": "address",
          "name": "from",
          "type": "address"
        },
        {
          "internalType": "address",
          "name": "to",
          "type": "address"
        },
        {
          "internalType": "uint256",
          "name": "tokenId",
          "type": "uint256"
        }
      ],
      "name": "transferFrom",
      "outputs": [],
      "stateMutability": "nonpayable",
      "type": "function"
    },
    {
      "inputs": [
        {
          "internalType": "string",
          "name": "identity",
          "type": "string"
        },
        {
          "internalType": "uint256",
          "name": "amt",
          "type": "uint256"
        }
      ],
      "name": "voteInfluencer",
      "outputs": [],
      "stateMutability": "nonpayable",
      "type": "function"
    }
  ],
  "transactionHash": "0x1baaddba22765b518c62d3b32f12eeeb58491eb260ecee0e782ab8ac94349437",
  "args": [],
  "numDeployments": 3,
  "solcInputHash": "40f352c1955bcf1af2ed4e572530a6db",
  "bytecode": "0x60806040523480156200001157600080fd5b50604051806040016040528060098152602001682a30b632aa37b5b2b760b91b8152506040518060400160405280600481526020016354414c4560e01b81525081600090816200006291906200011f565b5060016200007182826200011f565b505050620001eb565b634e487b7160e01b600052604160045260246000fd5b600181811c90821680620000a557607f821691505b602082108103620000c657634e487b7160e01b600052602260045260246000fd5b50919050565b601f8211156200011a57600081815260208120601f850160051c81016020861015620000f55750805b601f850160051c820191505b81811015620001165782815560010162000101565b5050505b505050565b81516001600160401b038111156200013b576200013b6200007a565b62000153816200014c845462000090565b84620000cc565b602080601f8311600181146200018b5760008415620001725750858301515b600019600386901b1c1916600185901b17855562000116565b600085815260208120601f198616915b82811015620001bc578886015182559484019460019091019084016200019b565b5085821015620001db5787850151600019600388901b60f8161c191681555b5050505050600190811b01905550565b61250380620001fb6000396000f3fe608060405234801561001057600080fd5b506004361061010b5760003560e01c8063681ea010116100a2578063a22cb46511610071578063a22cb4651461023d578063b88d4fde14610250578063c87b56dd14610263578063d7f9d50414610276578063e985e9c51461029657600080fd5b8063681ea010146101d957806370a08231146101ec57806395d89b411461020d578063a12220761461021557600080fd5b806323b872dd116100de57806323b872dd1461018d57806342842e0e146101a05780634ae58f2a146101b35780636352211e146101c657600080fd5b806301ffc9a71461011057806306fdde0314610138578063081812fc1461014d578063095ea7b314610178575b600080fd5b61012361011e366004611b55565b6102a9565b60405190151581526020015b60405180910390f35b6101406102ba565b60405161012f9190611bc2565b61016061015b366004611bd5565b61034c565b6040516001600160a01b03909116815260200161012f565b61018b610186366004611c0a565b610373565b005b61018b61019b366004611c34565b61048d565b61018b6101ae366004611c34565b6104be565b61018b6101c1366004611d1c565b6104d9565b6101606101d4366004611bd5565b61053f565b61018b6101e7366004611d61565b61059f565b6101ff6101fa366004611e72565b610762565b60405190815260200161012f565b6101406107e8565b610228610223366004611bd5565b6107f7565b60405161012f99989796959493929190611e8d565b61018b61024b366004611f25565b610af5565b61018b61025e366004611f61565b610b04565b610140610271366004611bd5565b610b3c565b610289610284366004611fdd565b610bb0565b60405161012f9190612039565b6101236102a4366004612118565b6112ed565b60006102b48261131b565b92915050565b6060600080546102c99061214b565b80601f01602080910402602001604051908101604052809291908181526020018280546102f59061214b565b80156103425780601f1061031757610100808354040283529160200191610342565b820191906000526020600020905b81548152906001019060200180831161032557829003601f168201915b5050505050905090565b60006103578261136b565b506000908152600460205260409020546001600160a01b031690565b600061037e8261053f565b9050806001600160a01b0316836001600160a01b0316036103f05760405162461bcd60e51b815260206004820152602160248201527f4552433732313a20617070726f76616c20746f2063757272656e74206f776e656044820152603960f91b60648201526084015b60405180910390fd5b336001600160a01b038216148061040c575061040c81336112ed565b61047e5760405162461bcd60e51b815260206004820152603d60248201527f4552433732313a20617070726f76652063616c6c6572206973206e6f7420746f60448201527f6b656e206f776e6572206f7220617070726f76656420666f7220616c6c00000060648201526084016103e7565b61048883836113cd565b505050565b610497338261143b565b6104b35760405162461bcd60e51b81526004016103e790612185565b610488838383611499565b61048883838360405180602001604052806000815250610b04565b7f7a02d268a4561f9dff3579c2e6152b66b48918ce856f08527de7511bc90f48928160078460405161050b91906121d2565b9081526040805160209281900383018120549381526001600160a01b03909316918301919091520160405180910390a15050565b6000818152600260205260408120546001600160a01b0316806102b45760405162461bcd60e51b8152602060048201526018602482015277115490cdcc8c4e881a5b9d985b1a59081d1bdad95b88125160421b60448201526064016103e7565b6105ab886008546115fd565b604080516101208101825260085480825260208083018b81528385018a9052606084018990526080840188905260a084018790523360c085015260e0840186905260006101008501819052928352600690915292902081518155915190918291600182019061061a908261223c565b506040820151600282019061062f908261223c565b5060608201516003820190610644908261223c565b5060808201516004820190610659908261223c565b5060a0820151600582019061066e908261223c565b5060c08201516006820180546001600160a01b0319166001600160a01b0390921691909117905560e08201516007820155610100909101516008918201805460ff1916911515919091179055546106c69060016122fc565b60085560405133906007906106dc908b906121d2565b908152602001604051809103902060006101000a8154816001600160a01b0302191690836001600160a01b031602179055506008547fcd09a53b2fd32826b59533cb5d81087dd8e529574d4c4b1eae7c2665d79f9d1987878b88883389600060405161074f98979695949392919061231d565b60405180910390a2505050505050505050565b60006001600160a01b0382166107cc5760405162461bcd60e51b815260206004820152602960248201527f4552433732313a2061646472657373207a65726f206973206e6f7420612076616044820152683634b21037bbb732b960b91b60648201526084016103e7565b506001600160a01b031660009081526003602052604090205490565b6060600180546102c99061214b565b600660205260009081526040902080546001820180549192916108199061214b565b80601f01602080910402602001604051908101604052809291908181526020018280546108459061214b565b80156108925780601f1061086757610100808354040283529160200191610892565b820191906000526020600020905b81548152906001019060200180831161087557829003601f168201915b5050505050908060020180546108a79061214b565b80601f01602080910402602001604051908101604052809291908181526020018280546108d39061214b565b80156109205780601f106108f557610100808354040283529160200191610920565b820191906000526020600020905b81548152906001019060200180831161090357829003601f168201915b5050505050908060030180546109359061214b565b80601f01602080910402602001604051908101604052809291908181526020018280546109619061214b565b80156109ae5780601f10610983576101008083540402835291602001916109ae565b820191906000526020600020905b81548152906001019060200180831161099157829003601f168201915b5050505050908060040180546109c39061214b565b80601f01602080910402602001604051908101604052809291908181526020018280546109ef9061214b565b8015610a3c5780601f10610a1157610100808354040283529160200191610a3c565b820191906000526020600020905b815481529060010190602001808311610a1f57829003601f168201915b505050505090806005018054610a519061214b565b80601f0160208091040260200160405190810160405280929190818152602001828054610a7d9061214b565b8015610aca5780601f10610a9f57610100808354040283529160200191610aca565b820191906000526020600020905b815481529060010190602001808311610aad57829003601f168201915b505050506006830154600784015460089094015492936001600160a01b039091169290915060ff1689565b610b00338383611617565b5050565b610b0e338361143b565b610b2a5760405162461bcd60e51b81526004016103e790612185565b610b36848484846116e5565b50505050565b6060610b478261136b565b6000610b5e60408051602081019091526000815290565b90506000815111610b7e5760405180602001604052806000815250610ba9565b80610b8884611718565b604051602001610b999291906123ad565b6040516020818303038152906040525b9392505050565b610c0a60405180610120016040528060008152602001606081526020016060815260200160608152602001606081526020016060815260200160006001600160a01b03168152602001600081526020016000151581525090565b610c158585856104be565b6000600660008581526020019081526020016000206040518061012001604052908160008201548152602001600182018054610c509061214b565b80601f0160208091040260200160405190810160405280929190818152602001828054610c7c9061214b565b8015610cc95780601f10610c9e57610100808354040283529160200191610cc9565b820191906000526020600020905b815481529060010190602001808311610cac57829003601f168201915b50505050508152602001600282018054610ce29061214b565b80601f0160208091040260200160405190810160405280929190818152602001828054610d0e9061214b565b8015610d5b5780601f10610d3057610100808354040283529160200191610d5b565b820191906000526020600020905b815481529060010190602001808311610d3e57829003601f168201915b50505050508152602001600382018054610d749061214b565b80601f0160208091040260200160405190810160405280929190818152602001828054610da09061214b565b8015610ded5780601f10610dc257610100808354040283529160200191610ded565b820191906000526020600020905b815481529060010190602001808311610dd057829003601f168201915b50505050508152602001600482018054610e069061214b565b80601f0160208091040260200160405190810160405280929190818152602001828054610e329061214b565b8015610e7f5780601f10610e5457610100808354040283529160200191610e7f565b820191906000526020600020905b815481529060010190602001808311610e6257829003601f168201915b50505050508152602001600582018054610e989061214b565b80601f0160208091040260200160405190810160405280929190818152602001828054610ec49061214b565b8015610f115780601f10610ee657610100808354040283529160200191610f11565b820191906000526020600020905b815481529060010190602001808311610ef457829003601f168201915b505050918352505060068201546001600160a01b0316602080830191909152600783015460408084019190915260089093015460ff161515606092830152835184840151928501519185015160a086015160c087015160e0880151965197985092967fcd09a53b2fd32826b59533cb5d81087dd8e529574d4c4b1eae7c2665d79f9d1996610fa99695948c939290919060019061231d565b60405180910390a2600660008581526020019081526020016000206040518061012001604052908160008201548152602001600182018054610fea9061214b565b80601f01602080910402602001604051908101604052809291908181526020018280546110169061214b565b80156110635780601f1061103857610100808354040283529160200191611063565b820191906000526020600020905b81548152906001019060200180831161104657829003601f168201915b5050505050815260200160028201805461107c9061214b565b80601f01602080910402602001604051908101604052809291908181526020018280546110a89061214b565b80156110f55780601f106110ca576101008083540402835291602001916110f5565b820191906000526020600020905b8154815290600101906020018083116110d857829003601f168201915b5050505050815260200160038201805461110e9061214b565b80601f016020809104026020016040519081016040528092919081815260200182805461113a9061214b565b80156111875780601f1061115c57610100808354040283529160200191611187565b820191906000526020600020905b81548152906001019060200180831161116a57829003601f168201915b505050505081526020016004820180546111a09061214b565b80601f01602080910402602001604051908101604052809291908181526020018280546111cc9061214b565b80156112195780601f106111ee57610100808354040283529160200191611219565b820191906000526020600020905b8154815290600101906020018083116111fc57829003601f168201915b505050505081526020016005820180546112329061214b565b80601f016020809104026020016040519081016040528092919081815260200182805461125e9061214b565b80156112ab5780601f10611280576101008083540402835291602001916112ab565b820191906000526020600020905b81548152906001019060200180831161128e57829003601f168201915b505050918352505060068201546001600160a01b031660208201526007820154604082015260089091015460ff1615156060909101529150505b949350505050565b6001600160a01b03918216600090815260056020908152604080832093909416825291909152205460ff1690565b60006001600160e01b031982166380ac58cd60e01b148061134c57506001600160e01b03198216635b5e139f60e01b145b806102b457506301ffc9a760e01b6001600160e01b03198316146102b4565b6000818152600260205260409020546001600160a01b03166113ca5760405162461bcd60e51b8152602060048201526018602482015277115490cdcc8c4e881a5b9d985b1a59081d1bdad95b88125160421b60448201526064016103e7565b50565b600081815260046020526040902080546001600160a01b0319166001600160a01b03841690811790915581906114028261053f565b6001600160a01b03167f8c5be1e5ebec7d5bd14f71427d1e84f3dd0314c0f7b2291e5b200ac8c7c3b92560405160405180910390a45050565b6000806114478361053f565b9050806001600160a01b0316846001600160a01b0316148061146e575061146e81856112ed565b806112e55750836001600160a01b03166114878461034c565b6001600160a01b031614949350505050565b826001600160a01b03166114ac8261053f565b6001600160a01b0316146114d25760405162461bcd60e51b81526004016103e7906123dc565b6001600160a01b0382166115345760405162461bcd60e51b8152602060048201526024808201527f4552433732313a207472616e7366657220746f20746865207a65726f206164646044820152637265737360e01b60648201526084016103e7565b826001600160a01b03166115478261053f565b6001600160a01b03161461156d5760405162461bcd60e51b81526004016103e7906123dc565b600081815260046020908152604080832080546001600160a01b03199081169091556001600160a01b0387811680865260038552838620805460001901905590871680865283862080546001019055868652600290945282852080549092168417909155905184937fddf252ad1be2c89b69c2b068fc378daa952ba7f163c4a11628f55a4df523b3ef91a4505050565b610b008282604051806020016040528060008152506117ab565b816001600160a01b0316836001600160a01b0316036116785760405162461bcd60e51b815260206004820152601960248201527f4552433732313a20617070726f766520746f2063616c6c65720000000000000060448201526064016103e7565b6001600160a01b03838116600081815260056020908152604080832094871680845294825291829020805460ff191686151590811790915591519182527f17307eab39ab6107e8899845ad3d59bd9653f200f220920489ca2b5937696c31910160405180910390a3505050565b6116f0848484611499565b6116fc848484846117de565b610b365760405162461bcd60e51b81526004016103e790612421565b60606000611725836118dc565b600101905060008167ffffffffffffffff81111561174557611745611c70565b6040519080825280601f01601f19166020018201604052801561176f576020820181803683370190505b5090508181016020015b600019016f181899199a1a9b1b9c1cb0b131b232b360811b600a86061a8153600a850494508461177957509392505050565b6117b583836119b4565b6117c260008484846117de565b6104885760405162461bcd60e51b81526004016103e790612421565b60006001600160a01b0384163b156118d457604051630a85bd0160e11b81526001600160a01b0385169063150b7a0290611822903390899088908890600401612473565b6020604051808303816000875af192505050801561185d575060408051601f3d908101601f1916820190925261185a918101906124b0565b60015b6118ba573d80801561188b576040519150601f19603f3d011682016040523d82523d6000602084013e611890565b606091505b5080516000036118b25760405162461bcd60e51b81526004016103e790612421565b805181602001fd5b6001600160e01b031916630a85bd0160e11b1490506112e5565b5060016112e5565b60008072184f03e93ff9f4daa797ed6e38ed64bf6a1f0160401b831061191b5772184f03e93ff9f4daa797ed6e38ed64bf6a1f0160401b830492506040015b6d04ee2d6d415b85acef81000000008310611947576d04ee2d6d415b85acef8100000000830492506020015b662386f26fc10000831061196557662386f26fc10000830492506010015b6305f5e100831061197d576305f5e100830492506008015b612710831061199157612710830492506004015b606483106119a3576064830492506002015b600a83106102b45760010192915050565b6001600160a01b038216611a0a5760405162461bcd60e51b815260206004820181905260248201527f4552433732313a206d696e7420746f20746865207a65726f206164647265737360448201526064016103e7565b6000818152600260205260409020546001600160a01b031615611a6f5760405162461bcd60e51b815260206004820152601c60248201527f4552433732313a20746f6b656e20616c7265616479206d696e7465640000000060448201526064016103e7565b6000818152600260205260409020546001600160a01b031615611ad45760405162461bcd60e51b815260206004820152601c60248201527f4552433732313a20746f6b656e20616c7265616479206d696e7465640000000060448201526064016103e7565b6001600160a01b038216600081815260036020908152604080832080546001019055848352600290915280822080546001600160a01b0319168417905551839291907fddf252ad1be2c89b69c2b068fc378daa952ba7f163c4a11628f55a4df523b3ef908290a45050565b6001600160e01b0319811681146113ca57600080fd5b600060208284031215611b6757600080fd5b8135610ba981611b3f565b60005b83811015611b8d578181015183820152602001611b75565b50506000910152565b60008151808452611bae816020860160208601611b72565b601f01601f19169290920160200192915050565b602081526000610ba96020830184611b96565b600060208284031215611be757600080fd5b5035919050565b80356001600160a01b0381168114611c0557600080fd5b919050565b60008060408385031215611c1d57600080fd5b611c2683611bee565b946020939093013593505050565b600080600060608486031215611c4957600080fd5b611c5284611bee565b9250611c6060208501611bee565b9150604084013590509250925092565b634e487b7160e01b600052604160045260246000fd5b600067ffffffffffffffff80841115611ca157611ca1611c70565b604051601f8501601f19908116603f01168101908282118183101715611cc957611cc9611c70565b81604052809350858152868686011115611ce257600080fd5b858560208301376000602087830101525050509392505050565b600082601f830112611d0d57600080fd5b610ba983833560208501611c86565b60008060408385031215611d2f57600080fd5b823567ffffffffffffffff811115611d4657600080fd5b611d5285828601611cfc565b95602094909401359450505050565b600080600080600080600080610100898b031215611d7e57600080fd5b611d8789611bee565b9750602089013567ffffffffffffffff80821115611da457600080fd5b611db08c838d01611cfc565b985060408b0135915080821115611dc657600080fd5b611dd28c838d01611cfc565b975060608b0135915080821115611de857600080fd5b611df48c838d01611cfc565b965060808b0135915080821115611e0a57600080fd5b611e168c838d01611cfc565b955060a08b0135915080821115611e2c57600080fd5b611e388c838d01611cfc565b945060c08b0135915080821115611e4e57600080fd5b50611e5b8b828c01611cfc565b92505060e089013590509295985092959890939650565b600060208284031215611e8457600080fd5b610ba982611bee565b60006101208b8352806020840152611ea78184018c611b96565b90508281036040840152611ebb818b611b96565b90508281036060840152611ecf818a611b96565b90508281036080840152611ee38189611b96565b905082810360a0840152611ef78188611b96565b6001600160a01b039690961660c0840152505060e08101929092521515610100909101529695505050505050565b60008060408385031215611f3857600080fd5b611f4183611bee565b915060208301358015158114611f5657600080fd5b809150509250929050565b60008060008060808587031215611f7757600080fd5b611f8085611bee565b9350611f8e60208601611bee565b925060408501359150606085013567ffffffffffffffff811115611fb157600080fd5b8501601f81018713611fc257600080fd5b611fd187823560208401611c86565b91505092959194509250565b60008060008060808587031215611ff357600080fd5b611ffc85611bee565b935061200a60208601611bee565b925060408501359150606085013567ffffffffffffffff81111561202d57600080fd5b611fd187828801611cfc565b602081528151602082015260006020830151610120806040850152612062610140850183611b96565b91506040850151601f19808685030160608701526120808483611b96565b9350606087015191508086850301608087015261209d8483611b96565b935060808701519150808685030160a08701526120ba8483611b96565b935060a08701519150808685030160c0870152506120d88382611b96565b92505060c08501516120f560e08601826001600160a01b03169052565b5060e0850151610100858101919091529094015115159390920192909252919050565b6000806040838503121561212b57600080fd5b61213483611bee565b915061214260208401611bee565b90509250929050565b600181811c9082168061215f57607f821691505b60208210810361217f57634e487b7160e01b600052602260045260246000fd5b50919050565b6020808252602d908201527f4552433732313a2063616c6c6572206973206e6f7420746f6b656e206f776e6560408201526c1c881bdc88185c1c1c9bdd9959609a1b606082015260800190565b600082516121e4818460208701611b72565b9190910192915050565b601f82111561048857600081815260208120601f850160051c810160208610156122155750805b601f850160051c820191505b8181101561223457828155600101612221565b505050505050565b815167ffffffffffffffff81111561225657612256611c70565b61226a81612264845461214b565b846121ee565b602080601f83116001811461229f57600084156122875750858301515b600019600386901b1c1916600185901b178555612234565b600085815260208120601f198616915b828110156122ce578886015182559484019460019091019084016122af565b50858210156122ec5787850151600019600388901b60f8161c191681555b5050505050600190811b01905550565b808201808211156102b457634e487b7160e01b600052601160045260246000fd5b60006101008083526123318184018c611b96565b90508281036020840152612345818b611b96565b90508281036040840152612359818a611b96565b9050828103606084015261236d8189611b96565b905082810360808401526123818188611b96565b6001600160a01b039690961660a0840152505060c0810192909252151560e09091015295945050505050565b600083516123bf818460208801611b72565b8351908301906123d3818360208801611b72565b01949350505050565b60208082526025908201527f4552433732313a207472616e736665722066726f6d20696e636f72726563742060408201526437bbb732b960d91b606082015260800190565b60208082526032908201527f4552433732313a207472616e7366657220746f206e6f6e20455243373231526560408201527131b2b4bb32b91034b6b83632b6b2b73a32b960711b606082015260800190565b6001600160a01b03858116825284166020820152604081018390526080606082018190526000906124a690830184611b96565b9695505050505050565b6000602082840312156124c257600080fd5b8151610ba981611b3f56fea264697066735822122067f5b3b952b948a7acfd559baf75b49c72efe7652f89ef38340dad401dbd3b6e64736f6c63430008140033",
  "devdoc": {
    "events": {
      "Approval(address,address,uint256)": {
        "details": "Emitted when `owner` enables `approved` to manage the `tokenId` token."
      },
      "ApprovalForAll(address,address,bool)": {
        "details": "Emitted when `owner` enables or disables (`approved`) `operator` to manage all of its assets."
      },
      "Transfer(address,address,uint256)": {
        "details": "Emitted when `tokenId` token is transferred from `from` to `to`."
      }
    },
    "kind": "dev",
    "methods": {
      "approve(address,uint256)": {
        "details": "See {IERC721-approve}."
      },
      "balanceOf(address)": {
        "details": "See {IERC721-balanceOf}."
      },
      "getApproved(uint256)": {
        "details": "See {IERC721-getApproved}."
      },
      "isApprovedForAll(address,address)": {
        "details": "See {IERC721-isApprovedForAll}."
      },
      "name()": {
        "details": "See {IERC721Metadata-name}."
      },
      "ownerOf(uint256)": {
        "details": "See {IERC721-ownerOf}."
      },
      "safeTransferFrom(address,address,uint256)": {
        "details": "See {IERC721-safeTransferFrom}."
      },
      "safeTransferFrom(address,address,uint256,bytes)": {
        "details": "See {IERC721-safeTransferFrom}."
      },
      "setApprovalForAll(address,bool)": {
        "details": "See {IERC721-setApprovalForAll}."
      },
      "supportsInterface(bytes4)": {
        "details": "See {IERC165-supportsInterface}."
      },
      "symbol()": {
        "details": "See {IERC721Metadata-symbol}."
      },
      "tokenURI(uint256)": {
        "details": "See {IERC721Metadata-tokenURI}."
      },
      "transferFrom(address,address,uint256)": {
        "details": "See {IERC721-transferFrom}."
      }
    },
    "version": 1
  },
  "userdoc": {
    "kind": "user",
    "methods": {},
    "version": 1
  },
  "storageLayout": {
    "storage": [
      {
        "astId": 644,
        "contract": "contracts/TaleTrade.sol:TaleTrade",
        "label": "_name",
        "offset": 0,
        "slot": "0",
        "type": "t_string_storage"
      },
      {
        "astId": 646,
        "contract": "contracts/TaleTrade.sol:TaleTrade",
        "label": "_symbol",
        "offset": 0,
        "slot": "1",
        "type": "t_string_storage"
      },
      {
        "astId": 650,
        "contract": "contracts/TaleTrade.sol:TaleTrade",
        "label": "_owners",
        "offset": 0,
        "slot": "2",
        "type": "t_mapping(t_uint256,t_address)"
      },
      {
        "astId": 654,
        "contract": "contracts/TaleTrade.sol:TaleTrade",
        "label": "_balances",
        "offset": 0,
        "slot": "3",
        "type": "t_mapping(t_address,t_uint256)"
      },
      {
        "astId": 658,
        "contract": "contracts/TaleTrade.sol:TaleTrade",
        "label": "_tokenApprovals",
        "offset": 0,
        "slot": "4",
        "type": "t_mapping(t_uint256,t_address)"
      },
      {
        "astId": 664,
        "contract": "contracts/TaleTrade.sol:TaleTrade",
        "label": "_operatorApprovals",
        "offset": 0,
        "slot": "5",
        "type": "t_mapping(t_address,t_mapping(t_address,t_bool))"
      },
      {
        "astId": 3164,
        "contract": "contracts/TaleTrade.sol:TaleTrade",
        "label": "mapIdToPov",
        "offset": 0,
        "slot": "6",
        "type": "t_mapping(t_uint256,t_struct(POV)3159_storage)"
      },
      {
        "astId": 3168,
        "contract": "contracts/TaleTrade.sol:TaleTrade",
        "label": "mapIdentityToCreator",
        "offset": 0,
        "slot": "7",
        "type": "t_mapping(t_string_memory_ptr,t_address)"
      },
      {
        "astId": 3170,
        "contract": "contracts/TaleTrade.sol:TaleTrade",
        "label": "tokenId",
        "offset": 0,
        "slot": "8",
        "type": "t_uint256"
      }
    ],
    "types": {
      "t_address": {
        "encoding": "inplace",
        "label": "address",
        "numberOfBytes": "20"
      },
      "t_bool": {
        "encoding": "inplace",
        "label": "bool",
        "numberOfBytes": "1"
      },
      "t_mapping(t_address,t_bool)": {
        "encoding": "mapping",
        "key": "t_address",
        "label": "mapping(address => bool)",
        "numberOfBytes": "32",
        "value": "t_bool"
      },
      "t_mapping(t_address,t_mapping(t_address,t_bool))": {
        "encoding": "mapping",
        "key": "t_address",
        "label": "mapping(address => mapping(address => bool))",
        "numberOfBytes": "32",
        "value": "t_mapping(t_address,t_bool)"
      },
      "t_mapping(t_address,t_uint256)": {
        "encoding": "mapping",
        "key": "t_address",
        "label": "mapping(address => uint256)",
        "numberOfBytes": "32",
        "value": "t_uint256"
      },
      "t_mapping(t_string_memory_ptr,t_address)": {
        "encoding": "mapping",
        "key": "t_string_memory_ptr",
        "label": "mapping(string => address)",
        "numberOfBytes": "32",
        "value": "t_address"
      },
      "t_mapping(t_uint256,t_address)": {
        "encoding": "mapping",
        "key": "t_uint256",
        "label": "mapping(uint256 => address)",
        "numberOfBytes": "32",
        "value": "t_address"
      },
      "t_mapping(t_uint256,t_struct(POV)3159_storage)": {
        "encoding": "mapping",
        "key": "t_uint256",
        "label": "mapping(uint256 => struct TaleTrade.POV)",
        "numberOfBytes": "32",
        "value": "t_struct(POV)3159_storage"
      },
      "t_string_memory_ptr": {
        "encoding": "bytes",
        "label": "string",
        "numberOfBytes": "32"
      },
      "t_string_storage": {
        "encoding": "bytes",
        "label": "string",
        "numberOfBytes": "32"
      },
      "t_struct(POV)3159_storage": {
        "encoding": "inplace",
        "label": "struct TaleTrade.POV",
        "members": [
          {
            "astId": 3142,
            "contract": "contracts/TaleTrade.sol:TaleTrade",
            "label": "id",
            "offset": 0,
            "slot": "0",
            "type": "t_uint256"
          },
          {
            "astId": 3144,
            "contract": "contracts/TaleTrade.sol:TaleTrade",
            "label": "identify",
            "offset": 0,
            "slot": "1",
            "type": "t_string_storage"
          },
          {
            "astId": 3146,
            "contract": "contracts/TaleTrade.sol:TaleTrade",
            "label": "name",
            "offset": 0,
            "slot": "2",
            "type": "t_string_storage"
          },
          {
            "astId": 3148,
            "contract": "contracts/TaleTrade.sol:TaleTrade",
            "label": "genre",
            "offset": 0,
            "slot": "3",
            "type": "t_string_storage"
          },
          {
            "astId": 3150,
            "contract": "contracts/TaleTrade.sol:TaleTrade",
            "label": "network",
            "offset": 0,
            "slot": "4",
            "type": "t_string_storage"
          },
          {
            "astId": 3152,
            "contract": "contracts/TaleTrade.sol:TaleTrade",
            "label": "story",
            "offset": 0,
            "slot": "5",
            "type": "t_string_storage"
          },
          {
            "astId": 3154,
            "contract": "contracts/TaleTrade.sol:TaleTrade",
            "label": "creator",
            "offset": 0,
            "slot": "6",
            "type": "t_address"
          },
          {
            "astId": 3156,
            "contract": "contracts/TaleTrade.sol:TaleTrade",
            "label": "amt",
            "offset": 0,
            "slot": "7",
            "type": "t_uint256"
          },
          {
            "astId": 3158,
            "contract": "contracts/TaleTrade.sol:TaleTrade",
            "label": "status",
            "offset": 0,
            "slot": "8",
            "type": "t_bool"
          }
        ],
        "numberOfBytes": "288"
      },
      "t_uint256": {
        "encoding": "inplace",
        "label": "uint256",
        "numberOfBytes": "32"
      }
    }
  }
}