{
  "address": "0xaDaB93024506461f4D2A0c8ce6EF59d1c719F777",
  "abi": [
    {
      "inputs": [
        {
          "internalType": "address",
          "name": "_router",
          "type": "address"
        },
        {
          "internalType": "address",
          "name": "_link",
          "type": "address"
        }
      ],
      "stateMutability": "nonpayable",
      "type": "constructor"
    },
    {
      "inputs": [
        {
          "internalType": "uint64",
          "name": "destinationChainSelector",
          "type": "uint64"
        }
      ],
      "name": "DestinationChainNotAllowlisted",
      "type": "error"
    },
    {
      "inputs": [
        {
          "internalType": "address",
          "name": "owner",
          "type": "address"
        },
        {
          "internalType": "address",
          "name": "target",
          "type": "address"
        },
        {
          "internalType": "uint256",
          "name": "value",
          "type": "uint256"
        }
      ],
      "name": "FailedToWithdrawEth",
      "type": "error"
    },
    {
      "inputs": [],
      "name": "InvalidReceiverAddress",
      "type": "error"
    },
    {
      "inputs": [
        {
          "internalType": "uint256",
          "name": "currentBalance",
          "type": "uint256"
        },
        {
          "internalType": "uint256",
          "name": "calculatedFees",
          "type": "uint256"
        }
      ],
      "name": "NotEnoughBalance",
      "type": "error"
    },
    {
      "inputs": [],
      "name": "NothingToWithdraw",
      "type": "error"
    },
    {
      "anonymous": false,
      "inputs": [
        {
          "indexed": true,
          "internalType": "address",
          "name": "from",
          "type": "address"
        },
        {
          "indexed": true,
          "internalType": "address",
          "name": "to",
          "type": "address"
        }
      ],
      "name": "OwnershipTransferRequested",
      "type": "event"
    },
    {
      "anonymous": false,
      "inputs": [
        {
          "indexed": true,
          "internalType": "address",
          "name": "from",
          "type": "address"
        },
        {
          "indexed": true,
          "internalType": "address",
          "name": "to",
          "type": "address"
        }
      ],
      "name": "OwnershipTransferred",
      "type": "event"
    },
    {
      "anonymous": false,
      "inputs": [
        {
          "indexed": true,
          "internalType": "bytes32",
          "name": "messageId",
          "type": "bytes32"
        },
        {
          "indexed": true,
          "internalType": "uint64",
          "name": "destinationChainSelector",
          "type": "uint64"
        },
        {
          "indexed": false,
          "internalType": "address",
          "name": "receiver",
          "type": "address"
        },
        {
          "indexed": false,
          "internalType": "address",
          "name": "token",
          "type": "address"
        },
        {
          "indexed": false,
          "internalType": "uint256",
          "name": "tokenAmount",
          "type": "uint256"
        },
        {
          "indexed": false,
          "internalType": "address",
          "name": "feeToken",
          "type": "address"
        },
        {
          "indexed": false,
          "internalType": "uint256",
          "name": "fees",
          "type": "uint256"
        }
      ],
      "name": "TokensTransferred",
      "type": "event"
    },
    {
      "inputs": [],
      "name": "acceptOwnership",
      "outputs": [],
      "stateMutability": "nonpayable",
      "type": "function"
    },
    {
      "inputs": [
        {
          "internalType": "uint64",
          "name": "_destinationChainSelector",
          "type": "uint64"
        },
        {
          "internalType": "bool",
          "name": "allowed",
          "type": "bool"
        }
      ],
      "name": "allowlistDestinationChain",
      "outputs": [],
      "stateMutability": "nonpayable",
      "type": "function"
    },
    {
      "inputs": [
        {
          "internalType": "uint64",
          "name": "",
          "type": "uint64"
        }
      ],
      "name": "allowlistedChains",
      "outputs": [
        {
          "internalType": "bool",
          "name": "",
          "type": "bool"
        }
      ],
      "stateMutability": "view",
      "type": "function"
    },
    {
      "inputs": [],
      "name": "owner",
      "outputs": [
        {
          "internalType": "address",
          "name": "",
          "type": "address"
        }
      ],
      "stateMutability": "view",
      "type": "function"
    },
    {
      "inputs": [
        {
          "internalType": "address",
          "name": "to",
          "type": "address"
        }
      ],
      "name": "transferOwnership",
      "outputs": [],
      "stateMutability": "nonpayable",
      "type": "function"
    },
    {
      "inputs": [
        {
          "internalType": "uint64",
          "name": "_destinationChainSelector",
          "type": "uint64"
        },
        {
          "internalType": "address",
          "name": "_receiver",
          "type": "address"
        },
        {
          "internalType": "address",
          "name": "_token",
          "type": "address"
        },
        {
          "internalType": "uint256",
          "name": "_amount",
          "type": "uint256"
        }
      ],
      "name": "transferTokensPayLINK",
      "outputs": [
        {
          "internalType": "bytes32",
          "name": "messageId",
          "type": "bytes32"
        }
      ],
      "stateMutability": "nonpayable",
      "type": "function"
    },
    {
      "inputs": [
        {
          "internalType": "uint64",
          "name": "_destinationChainSelector",
          "type": "uint64"
        },
        {
          "internalType": "address",
          "name": "_receiver",
          "type": "address"
        },
        {
          "internalType": "address",
          "name": "_token",
          "type": "address"
        },
        {
          "internalType": "uint256",
          "name": "_amount",
          "type": "uint256"
        }
      ],
      "name": "transferTokensPayNative",
      "outputs": [
        {
          "internalType": "bytes32",
          "name": "messageId",
          "type": "bytes32"
        }
      ],
      "stateMutability": "nonpayable",
      "type": "function"
    },
    {
      "inputs": [
        {
          "internalType": "address",
          "name": "_beneficiary",
          "type": "address"
        }
      ],
      "name": "withdraw",
      "outputs": [],
      "stateMutability": "nonpayable",
      "type": "function"
    },
    {
      "inputs": [
        {
          "internalType": "address",
          "name": "_beneficiary",
          "type": "address"
        },
        {
          "internalType": "address",
          "name": "_token",
          "type": "address"
        }
      ],
      "name": "withdrawToken",
      "outputs": [],
      "stateMutability": "nonpayable",
      "type": "function"
    },
    {
      "stateMutability": "payable",
      "type": "receive"
    }
  ],
  "transactionHash": "0x4c890a3609beff901bebe600c09023f0f1f19c81c26a75eb73f1c6a863487223",
  "args": [
    "0x9C32fCB86BF0f4a1A8921a9Fe46de3198bb884B2",
    "0x0Fd9e8d3aF1aaee056EB9e802c3A762a667b1904"
  ],
  "numDeployments": 2,
  "solcInputHash": "658946006b8415c52a7b505ce3be0db9",
  "bytecode": "0x60806040523480156200001157600080fd5b5060405162001495380380620014958339810160408190526200003491620001bf565b33806000816200008b5760405162461bcd60e51b815260206004820152601860248201527f43616e6e6f7420736574206f776e657220746f207a65726f000000000000000060448201526064015b60405180910390fd5b600080546001600160a01b0319166001600160a01b0384811691909117909155811615620000be57620000be81620000f7565b5050600380546001600160a01b039485166001600160a01b031991821617909155600480549390941692169190911790915550620001f7565b336001600160a01b03821603620001515760405162461bcd60e51b815260206004820152601760248201527f43616e6e6f74207472616e7366657220746f2073656c66000000000000000000604482015260640162000082565b600180546001600160a01b0319166001600160a01b0383811691821790925560008054604051929316917fed8889f560326eb138920d842192f0eb3dd22b4f139c87a2c57538e05bae12789190a350565b80516001600160a01b0381168114620001ba57600080fd5b919050565b60008060408385031215620001d357600080fd5b620001de83620001a2565b9150620001ee60208401620001a2565b90509250929050565b61128e80620002076000396000f3fe60806040526004361061008a5760003560e01c806379ba50971161005957806379ba50971461014b5780638da5cb5b1461016057806395e1402c1461018857806396d3b83d146101a8578063f2fde38b146101c857600080fd5b80630bb106eb146100965780633aeac4e1146100db57806351419b4b146100fd57806351cff8d91461012b57600080fd5b3661009157005b600080fd5b3480156100a257600080fd5b506100c66100b1366004610f9c565b60026020526000908152604090205460ff1681565b60405190151581526020015b60405180910390f35b3480156100e757600080fd5b506100fb6100f6366004610fd5565b6101e8565b005b34801561010957600080fd5b5061011d610118366004611008565b610297565b6040519081526020016100d2565b34801561013757600080fd5b506100fb610146366004611053565b610530565b34801561015757600080fd5b506100fb6105e7565b34801561016c57600080fd5b506000546040516001600160a01b0390911681526020016100d2565b34801561019457600080fd5b5061011d6101a3366004611008565b610691565b3480156101b457600080fd5b506100fb6101c336600461107c565b610a80565b3480156101d457600080fd5b506100fb6101e3366004611053565b610ab4565b6101f0610ac8565b6040516370a0823160e01b81523060048201526000906001600160a01b038316906370a0823190602401602060405180830381865afa158015610237573d6000803e3d6000fd5b505050506040513d601f19601f8201168201806040525081019061025b91906110b3565b90508060000361027e57604051630686827b60e51b815260040160405180910390fd5b6102926001600160a01b0383168483610b1d565b505050565b60006102a1610ac8565b67ffffffffffffffff8516600090815260026020526040902054859060ff166102ee57604051630a503cdb60e01b815267ffffffffffffffff821660048201526024015b60405180910390fd5b846001600160a01b0381166103165760405163502ffa3f60e11b815260040160405180910390fd5b60006103258787876000610b6f565b6003546040516320487ded60e01b81529192506000916001600160a01b03909116906320487ded9061035d908c90869060040161111c565b602060405180830381865afa15801561037a573d6000803e3d6000fd5b505050506040513d601f19601f8201168201806040525081019061039e91906110b3565b9050478111156103ca57604051634787a10360e11b8152476004820152602481018290526044016102e5565b60035460405163095ea7b360e01b81526001600160a01b039182166004820152602481018890529088169063095ea7b3906044016020604051808303816000875af115801561041d573d6000803e3d6000fd5b505050506040513d601f19601f8201168201806040525081019061044191906111f6565b506003546040516396f4e9f960e01b81526001600160a01b03909116906396f4e9f9908390610476908d90879060040161111c565b60206040518083038185885af1158015610494573d6000803e3d6000fd5b50505050506040513d601f19601f820116820180604052508101906104b991906110b3565b604080516001600160a01b03808c1682528a166020820152908101889052600060608201526080810183905290955067ffffffffffffffff8a169086907fc15fb748c32ba4eb29c1c311e78533f93b4425eab49ea87c6fe4279ecadca0439060a0015b60405180910390a350505050949350505050565b610538610ac8565b47600081900361055b57604051630686827b60e51b815260040160405180910390fd5b6000826001600160a01b03168260405160006040518083038185875af1925050503d80600081146105a8576040519150601f19603f3d011682016040523d82523d6000602084013e6105ad565b606091505b505090508061029257604051639d11f56360e01b81523360048201526001600160a01b0384166024820152604481018390526064016102e5565b6001546001600160a01b0316331461063a5760405162461bcd60e51b815260206004820152601660248201527526bab9ba10313290383937b837b9b2b21037bbb732b960511b60448201526064016102e5565b60008054336001600160a01b0319808316821784556001805490911690556040516001600160a01b0390921692909183917f8be0079c531659141344cd1fd0a4f28419497f9722a3daafe3b4186f6b6457e091a350565b600061069b610ac8565b67ffffffffffffffff8516600090815260026020526040902054859060ff166106e357604051630a503cdb60e01b815267ffffffffffffffff821660048201526024016102e5565b846001600160a01b03811661070b5760405163502ffa3f60e11b815260040160405180910390fd5b600454600090610729908890889088906001600160a01b0316610b6f565b6003546040516320487ded60e01b81529192506000916001600160a01b03909116906320487ded90610761908c90869060040161111c565b602060405180830381865afa15801561077e573d6000803e3d6000fd5b505050506040513d601f19601f820116820180604052508101906107a291906110b3565b600480546040516370a0823160e01b815230928101929092529192506001600160a01b03909116906370a0823190602401602060405180830381865afa1580156107f0573d6000803e3d6000fd5b505050506040513d601f19601f8201168201806040525081019061081491906110b3565b8111156108ac57600480546040516370a0823160e01b815230928101929092526001600160a01b0316906370a0823190602401602060405180830381865afa158015610864573d6000803e3d6000fd5b505050506040513d601f19601f8201168201806040525081019061088891906110b3565b604051634787a10360e11b81526004810191909152602481018290526044016102e5565b6004805460035460405163095ea7b360e01b81526001600160a01b039182169381019390935260248301849052169063095ea7b3906044016020604051808303816000875af1158015610903573d6000803e3d6000fd5b505050506040513d601f19601f8201168201806040525081019061092791906111f6565b5060035460405163095ea7b360e01b81526001600160a01b039182166004820152602481018890529088169063095ea7b3906044016020604051808303816000875af115801561097b573d6000803e3d6000fd5b505050506040513d601f19601f8201168201806040525081019061099f91906111f6565b506003546040516396f4e9f960e01b81526001600160a01b03909116906396f4e9f9906109d2908c90869060040161111c565b6020604051808303816000875af11580156109f1573d6000803e3d6000fd5b505050506040513d601f19601f82011682018060405250810190610a1591906110b3565b600454604080516001600160a01b03808d168252808c1660208301529181018a9052911660608201526080810183905290955067ffffffffffffffff8a169086907fc15fb748c32ba4eb29c1c311e78533f93b4425eab49ea87c6fe4279ecadca0439060a00161051c565b610a88610ac8565b67ffffffffffffffff919091166000908152600260205260409020805460ff1916911515919091179055565b610abc610ac8565b610ac581610ce1565b50565b6000546001600160a01b03163314610b1b5760405162461bcd60e51b815260206004820152601660248201527527b7363c9031b0b63630b1363290313c9037bbb732b960511b60448201526064016102e5565b565b604080516001600160a01b038416602482015260448082018490528251808303909101815260649091019091526020810180516001600160e01b031663a9059cbb60e01b179052610292908490610d8a565b610baa6040518060a0016040528060608152602001606081526020016060815260200160006001600160a01b03168152602001606081525090565b604080516001808252818301909252600091816020015b6040805180820190915260008082526020820152815260200190600190039081610bc15790505090506040518060400160405280866001600160a01b031681526020018581525081600081518110610c1b57610c1b611213565b60209081029190910101526040805160a081019091526001600160a01b03871660c08201528060e081016040516020818303038152906040528152602001604051806020016040528060008152508152602001828152602001846001600160a01b03168152602001610cd36040518060200160405280600081525060408051915160248084019190915281518084039091018152604490920190526020810180516001600160e01b03166397a657c960e01b17905290565b90529150505b949350505050565b336001600160a01b03821603610d395760405162461bcd60e51b815260206004820152601760248201527f43616e6e6f74207472616e7366657220746f2073656c6600000000000000000060448201526064016102e5565b600180546001600160a01b0319166001600160a01b0383811691821790925560008054604051929316917fed8889f560326eb138920d842192f0eb3dd22b4f139c87a2c57538e05bae12789190a350565b6000610ddf826040518060400160405280602081526020017f5361666545524332303a206c6f772d6c6576656c2063616c6c206661696c6564815250856001600160a01b0316610e5c9092919063ffffffff16565b8051909150156102925780806020019051810190610dfd91906111f6565b6102925760405162461bcd60e51b815260206004820152602a60248201527f5361666545524332303a204552433230206f7065726174696f6e20646964206e6044820152691bdd081cdd58d8d9595960b21b60648201526084016102e5565b6060610cd9848460008585600080866001600160a01b03168587604051610e839190611229565b60006040518083038185875af1925050503d8060008114610ec0576040519150601f19603f3d011682016040523d82523d6000602084013e610ec5565b606091505b5091509150610ed687838387610ee1565b979650505050505050565b60608315610f50578251600003610f49576001600160a01b0385163b610f495760405162461bcd60e51b815260206004820152601d60248201527f416464726573733a2063616c6c20746f206e6f6e2d636f6e747261637400000060448201526064016102e5565b5081610cd9565b610cd98383815115610f655781518083602001fd5b8060405162461bcd60e51b81526004016102e59190611245565b803567ffffffffffffffff81168114610f9757600080fd5b919050565b600060208284031215610fae57600080fd5b610fb782610f7f565b9392505050565b80356001600160a01b0381168114610f9757600080fd5b60008060408385031215610fe857600080fd5b610ff183610fbe565b9150610fff60208401610fbe565b90509250929050565b6000806000806080858703121561101e57600080fd5b61102785610f7f565b935061103560208601610fbe565b925061104360408601610fbe565b9396929550929360600135925050565b60006020828403121561106557600080fd5b610fb782610fbe565b8015158114610ac557600080fd5b6000806040838503121561108f57600080fd5b61109883610f7f565b915060208301356110a88161106e565b809150509250929050565b6000602082840312156110c557600080fd5b5051919050565b60005b838110156110e75781810151838201526020016110cf565b50506000910152565b600081518084526111088160208601602086016110cc565b601f01601f19169290920160200192915050565b6000604067ffffffffffffffff8516835260208181850152845160a08386015261114960e08601826110f0565b905081860151603f198087840301606088015261116683836110f0565b88860151888203830160808a01528051808352908601945060009350908501905b808410156111b957845180516001600160a01b0316835286015186830152938501936001939093019290860190611187565b5060608901516001600160a01b031660a08901526080890151888203830160c08a015295506111e881876110f0565b9a9950505050505050505050565b60006020828403121561120857600080fd5b8151610fb78161106e565b634e487b7160e01b600052603260045260246000fd5b6000825161123b8184602087016110cc565b9190910192915050565b602081526000610fb760208301846110f056fea26469706673582212201822746de184771f36c71930d45030cb1c5a08f615be0f961c79a2961ae18d9f64736f6c63430008130033",
  "devdoc": {
    "kind": "dev",
    "methods": {
      "allowlistDestinationChain(uint64,bool)": {
        "details": "Updates the allowlist status of a destination chain for transactions.",
        "params": {
          "_destinationChainSelector": "The selector of the destination chain to be updated.",
          "allowed": "The allowlist status to be set for the destination chain."
        }
      },
      "constructor": {
        "params": {
          "_link": "The address of the link contract.",
          "_router": "The address of the router contract."
        }
      },
      "transferTokensPayLINK(uint64,address,address,uint256)": {
        "details": "Assumes your contract has sufficient LINK tokens to pay for the fees.",
        "params": {
          "_amount": "token amount.",
          "_destinationChainSelector": "The identifier (aka selector) for the destination blockchain.",
          "_receiver": "The address of the recipient on the destination blockchain.",
          "_token": "token address."
        },
        "returns": {
          "messageId": "The ID of the message that was sent."
        }
      },
      "transferTokensPayNative(uint64,address,address,uint256)": {
        "details": "Assumes your contract has sufficient native gas like ETH on Ethereum or MATIC on Polygon.",
        "params": {
          "_amount": "token amount.",
          "_destinationChainSelector": "The identifier (aka selector) for the destination blockchain.",
          "_receiver": "The address of the recipient on the destination blockchain.",
          "_token": "token address."
        },
        "returns": {
          "messageId": "The ID of the message that was sent."
        }
      },
      "withdraw(address)": {
        "details": "This function reverts if there are no funds to withdraw or if the transfer fails. It should only be callable by the owner of the contract.",
        "params": {
          "_beneficiary": "The address to which the Ether should be transferred."
        }
      },
      "withdrawToken(address,address)": {
        "details": "This function reverts with a 'NothingToWithdraw' error if there are no tokens to withdraw.",
        "params": {
          "_beneficiary": "The address to which the tokens will be sent.",
          "_token": "The contract address of the ERC20 token to be withdrawn."
        }
      }
    },
    "title": "- A simple contract for transferring tokens across chains.",
    "version": 1
  },
  "userdoc": {
    "kind": "user",
    "methods": {
      "acceptOwnership()": {
        "notice": "Allows an ownership transfer to be completed by the recipient."
      },
      "allowlistDestinationChain(uint64,bool)": {
        "notice": "This function can only be called by the owner."
      },
      "constructor": {
        "notice": "Constructor initializes the contract with the router address."
      },
      "owner()": {
        "notice": "Get the current owner"
      },
      "transferOwnership(address)": {
        "notice": "Allows an owner to begin transferring ownership to a new address."
      },
      "transferTokensPayLINK(uint64,address,address,uint256)": {
        "notice": "Transfer tokens to receiver on the destination chain.pay in LINK.the token must be in the list of supported tokens.This function can only be called by the owner."
      },
      "transferTokensPayNative(uint64,address,address,uint256)": {
        "notice": "Transfer tokens to receiver on the destination chain.Pay in native gas such as ETH on Ethereum or MATIC on Polgon.the token must be in the list of supported tokens.This function can only be called by the owner."
      },
      "withdraw(address)": {
        "notice": "Allows the contract owner to withdraw the entire balance of Ether from the contract."
      },
      "withdrawToken(address,address)": {
        "notice": "Allows the owner of the contract to withdraw all tokens of a specific ERC20 token."
      }
    },
    "version": 1
  },
  "storageLayout": {
    "storage": [
      {
        "astId": 136,
        "contract": "contracts/Trade.sol:Trade",
        "label": "s_owner",
        "offset": 0,
        "slot": "0",
        "type": "t_address"
      },
      {
        "astId": 138,
        "contract": "contracts/Trade.sol:Trade",
        "label": "s_pendingOwner",
        "offset": 0,
        "slot": "1",
        "type": "t_address"
      },
      {
        "astId": 1108,
        "contract": "contracts/Trade.sol:Trade",
        "label": "allowlistedChains",
        "offset": 0,
        "slot": "2",
        "type": "t_mapping(t_uint64,t_bool)"
      },
      {
        "astId": 1111,
        "contract": "contracts/Trade.sol:Trade",
        "label": "s_router",
        "offset": 0,
        "slot": "3",
        "type": "t_contract(IRouterClient)51"
      },
      {
        "astId": 1114,
        "contract": "contracts/Trade.sol:Trade",
        "label": "s_linkToken",
        "offset": 0,
        "slot": "4",
        "type": "t_contract(IERC20)400"
      }
    ],
    "types": {
      "t_address": {
        "encoding": "inplace",
        "label": "address",
        "numberOfBytes": "20"
      },
      "t_bool": {
        "encoding": "inplace",
        "label": "bool",
        "numberOfBytes": "1"
      },
      "t_contract(IERC20)400": {
        "encoding": "inplace",
        "label": "contract IERC20",
        "numberOfBytes": "20"
      },
      "t_contract(IRouterClient)51": {
        "encoding": "inplace",
        "label": "contract IRouterClient",
        "numberOfBytes": "20"
      },
      "t_mapping(t_uint64,t_bool)": {
        "encoding": "mapping",
        "key": "t_uint64",
        "label": "mapping(uint64 => bool)",
        "numberOfBytes": "32",
        "value": "t_bool"
      },
      "t_uint64": {
        "encoding": "inplace",
        "label": "uint64",
        "numberOfBytes": "8"
      }
    }
  }
}